:100000000C94B6000C94E8060C9411070C94DE00D6
:100010000C94DE000C94DE000C948C080C94DE0032
:100020000C94DE000C944A070C94DE000C9401083A
:100030000C94DE000C9453080C94D8070C94DE004A
:100040000C94DE000C94DE000C9408090C94DE0085
:100050000C94DE000C94DE000C94DE000C94DE00A8
:100060000C9442090C94DE006E616E00696E6600AD
:1000700000407A10F35A00A0724E18090010A5D45F
:10008000E80000E87648170000E40B54020000CABC
:100090009A3B000000E1F505000080969800000002
:1000A00040420F000000A086010000001027000061
:1000B0000000E803000000006400000000000A00E7
:1000C000000000000100000000002C76D888DC67EA
:1000D0004F0823DFC1DFAE59E1B1B796E5E3E45342
:1000E000C63AE651997696E8E6C28426EB898C9B5F
:1000F00062ED407C6FFCEFBC9C9F40F2BAA56FA5FF
:10010000F490055A2AF75C936B6CF9676DC11BFC80
:10011000E0E40D47FEF520E6B500D0ED902E03009B
:10012000943577050080841E080000204E0A0000E8
:1001300000C80C333333330F986E12831141EF8DA7
:100140002114893BE65516CFFEE6DB18D1844B38E7
:100150001BF77C1D901DA4BBE424203284725E2218
:100160008100C9F124ECA1E53D27CC0711241FBE75
:10017000CFEFD8E0DEBFCDBF11E0A0E0B1E0E2EE0E
:10018000F7E102C005900D92A230B107D9F721E046
:10019000A2E0B1E001C01D92A53CB207E1F710E07A
:1001A000C6EBD0E004C02197FE010E94360AC53B91
:1001B000D107C9F70E9441040C94EF0B0C94000086
:1001C000AFE0B0E0E6EEF0E00C943C0A6C011B01FD
:1001D0005A01FC0117821682838181FF48C39E0168
:1001E0002F5F3F4F4901F6019381F10193FD859106
:1001F00093FF81911F01882309F4E7C2853239F406
:1002000093FD859193FF81911F01853239F4B601E9
:1002100090E00E94610B35015301E5CFF12C512C88
:1002200000E0003238F48B3209F190F48032F9F0BA
:10023000833209F107FD34C020ED280F2A3020F564
:1002400006FF1BC0FAE0FF9E200D1124F22E05C010
:100250008D3279F0803371F70160F10193FD859162
:1002600093FF81911F018111DCCF1AC002600460ED
:10027000F4CF0860F2CF0061F0CF3AE0539E200D3A
:100280001124522E0062E9CF8E3221F406FD9DC268
:100290000064E3CF8C3611F40068DFCF8836E9F2D2
:1002A0009BEB980F933008F05FC00061805E06FD05
:1002B00002C046E0F42E102F1F73853609F05BC094
:1002C000106417FF61C08F2D9BE39F1508F48BE32B
:1002D00044244394480E27E03501F4E06F0E711C6E
:1002E000F5016081718182819381042DA4010E94B6
:1002F000730A5C01F981FC87F0FF03C00DE2F3FF94
:1003000007C00BE211FD04C0012F047012FD00E2D2
:100310002C852C70E22E09F457C00111ABC2F3E01A
:10032000E12CF515A0F483E0E52CE81A13FD08C0D4
:10033000B60180E290E00E94610BEA94E110F8CFF0
:10034000002329F0B601802F90E00E94610B3C85CC
:1003500028E6A22E20E0B22E33FD04C09CE6A92E92
:1003600090E0B92E107122C09BE9980F933008F0ED
:1003700033C10F7E9CCF863611F41068A2CFFF20C8
:1003800009F49FCFFA949DCFE7E02F2DEF1518F4D5
:1003900027E037E0F32E412C9FCF11118052B60198
:1003A00090E00E94610B8FEFA81AB80AF5018491C2
:1003B0008111F3CFEE2009F42FCFB60180E290E057
:1003C0000E94610BEA94F6CF17FF6FC04A0CFC85C0
:1003D000F4FF04C08A81813309F44A9414140CF0A8
:1003E00086C028E0241510F488E0482E85E090E0CF
:1003F00017FF06C0C501B7FE02C090E080E001967D
:1004000001110196FF2031F02F2D30E02F5F3F4F7B
:10041000820F931F5816190619F014F0E52CE81AEC
:10042000812F897011F4E11067C0002329F0B60113
:10043000802F90E00E94610B13FD02C0E11063C0A9
:1004400017FF7CC08501B7FE02C010E000E0C501C7
:10045000841991092C016F2D70E0EE27FF27E61B10
:10046000F70BFF87EE870F3F100729F4B6018EE2E6
:1004700090E00E94610BA016B1060CF44BC0401630
:1004800051060CF047C0F501E01BF10BE80DF91D1A
:100490008181015011092E853F8502171307E4F170
:1004A000B60190E00E94610BDECF16FD9FCFEF2DCD
:1004B000F0E0EA15FB0534F03CEFA3163FEFB3067E
:1004C0000CF010683296E80DF91D01C0FA94FF2077
:1004D00019F082918033D1F317FF88CF44244394DD
:1004E0004F0CFA141B0431F02CF0FA187FCF44247F
:1004F00043947CCFF12C7ACFB60180E290E00E9449
:10050000610BEA9490CFB60180E390E00E94610B0A
:10051000EA9494CF80E3BDCFA016B10641F49A814E
:10052000963350F4953319F43C8534FF05C0B60179
:1005300090E00E94610B3ECF81E3F9CF8A81813345
:1005400019F09C859F7E9C87B60190E00E94610B0C
:10055000FF20A9F0B6018EE290E00E94610BF394B7
:10056000F394E2E001E00E0FE80DF92DF11D80811A
:10057000B60190E00E94610BE02F0F11F3CF85E6EA
:1005800090E014FF02C085E490E0B6010E94610B88
:10059000B7FC06C0A114B104C1F4EC85E4FF15C09A
:1005A000B194A194B1088DE2B60190E00E94610B74
:1005B00080E32AE0A216B10454F4B60190E00E9450
:1005C000610BB601C501C096B4CF8BE2EDCF8F5F52
:1005D000FAE0AF1AB108EDCF8336C9F0833771F175
:1005E000833509F05BC03501F2E06F0E711CF50137
:1005F000A080B1806F2D70E006FD02C06FEF7FEF2D
:10060000C5010E944B0B9D878C8700680DC035018A
:1006100032E0630E711CF5018081898321E030E0B6
:100620003D872C8754010F7703FD06C02C853D853F
:100630005216130609F0A8F4E52C2BC0350132E060
:10064000630E711CF501A080B1806F2D70E006FD76
:1006500002C06FEF7FEFC5010E94560B9D878C870C
:10066000E2CFB60180E290E00E94610B5A94DECFA7
:10067000F50107FD859107FF81915F01B60190E0CB
:100680000E94610BE110EA948C859D8501979D87FE
:100690008C87EC85FD85EF2B59F78CCE843619F0CD
:1006A000893609F074C0350107FF66C0F4E06F0EAB
:1006B000711CF5016081718182819381102F1F76F9
:1006C00097FF08C090958095709561957F4F8F4FEB
:1006D0009F4F10682AE030E0A4010E94910BA82EE1
:1006E000A818BA2C012F16FF0AC00E7FAF1438F4D9
:1006F00014FF04C012FD02C0012F0E7EBF2C04FFA8
:100700008EC0FE01EA0DF11D8081803309F080C0AA
:10071000097EF02FF870EF2E03FD90C000FF8AC015
:10072000FA2CB51410F4F50CFB1804FF8DC0B601BB
:1007300080E390E00E94610B02FF09C088E790E02F
:1007400001FF02C088E590E0B6010E94610BAF1482
:1007500008F486C0AA940A2D10E00F5F1F4F080D01
:10076000191DF80182918F01B60190E00E94610B82
:1007700080169106B1F71ECEF2E06F0E711CF501E6
:1007800060817181072E000C880B990B97CF102F79
:100790008537A9F41F7E2AE030E0350117FF2FC00E
:1007A000F4E06F0E711CF50160817181828193818B
:1007B000A4010E94910BA82EA8181F7792CF197F31
:1007C0008F36D1F048F4883591F0F6018681978113
:1007D0002F96E2E10C94580A803739F08837A9F750
:1007E00014FD146020E130E0D8CF1061F9CF04FD92
:1007F000166020E132E0D1CF28E030E0CECFF2E049
:100800006F0E711CF5016081718190E080E0D0CFA6
:1008100002FD02C0B3947DCFB394B3947ACF802FFE
:10082000867809F476CFF6CFB60180E290E00E9498
:10083000610BB394B514C0F3E12C77CFE52CEB1822
:10084000B51408F472CFF8CF802F867809F47FCFE3
:100850008BE201FF80E207FD8DE2B60190E075CFEB
:10086000B60180E390E00E94610BFA9470CF8FEFA5
:100870009FEFAECF24E0E12C251508F063CD84E096
:1008800053CD82E061E00E94830683E061E00E9434
:10089000830684E061E00E94830685E061E00E94B7
:1008A000830686E061E00E94830687E061E00E94A3
:1008B000830688E061E00E94830689E061E00E948F
:1008C00083068AE061E00E9483068BE061E00E947B
:1008D00083068CE061E00E9483068DE061E00E9467
:1008E00083060E94330A803009F435C08DE061E050
:1008F0000E9443060E949A058CE061E00E94430634
:100900000E949A058BE061E00E9443060E949A05CE
:100910008BE0612D0E9443060E949A058CE0612DB8
:100920000E9443060E949A058DE0612D0E944306B5
:100930000E94AF040E94AF040E94AF040E94AF0463
:100940000E94AF040E94AF040E94AF040E94330AC9
:10095000803009F0CBCF60E070E0CB0108950F93B9
:100960001F938BE061E00E9443068CE061E00E94EF
:1009700043068DE061E00E94430685E061E00E944D
:10098000430686E061E00E94430687E061E00E9442
:10099000430604E610E0C8010E943A0782E0612D98
:1009A0000E94430683E0612D0E94430684E0612D8E
:1009B0000E94430685E0612D0E94430686E0612D7A
:1009C0000E94430687E0612D0E94430688E0612D66
:1009D0000E94430689E0612D0E9443068AE0612D52
:1009E0000E94430682E061E00E94430686E061E0E7
:1009F0000E9443068AE061E00E944306C8010E940B
:100A00003A0782E0612D0E94430683E0612D0E9437
:100A1000430684E0612D0E94430685E0612D0E941B
:100A2000430686E0612D0E94430687E0612D0E9407
:100A3000430688E0612D0E94430689E0612D0E94F3
:100A400043068AE0612D0E94430683E061E00E9434
:100A5000430686E061E00E94430689E061E00E946F
:100A60004306C8010E943A0782E0612D0E944306B6
:100A700083E0612D0E94430684E0612D0E944306BD
:100A800085E0612D0E94430686E0612D0E944306A9
:100A900087E0612D0E94430688E0612D0E94430695
:100AA00089E0612D0E9443068AE0612D0E94430681
:100AB00084E061E00E94430686E061E00E94430614
:100AC00088E061E00E944306C8010E943A0782E084
:100AD000612D0E94430683E0612D0E94430684E05D
:100AE000612D0E94430685E0612D0E94430686E049
:100AF000612D0E94430687E0612D0E94430688E035
:100B0000612D0E94430689E0612D0E9443068AE020
:100B1000612D0E9443068BE0612D0E9443068CE00C
:100B2000612D0E9443068DE0612D0E9443061F91B6
:100B30000F9108950F931F9382E061E00E94430696
:100B400004E610E0C8010E943A0783E061E00E94D9
:100B50004306C8010E943A0784E061E00E94430610
:100B6000C8010E943A0787E061E00E944306C8017D
:100B70000E943A078AE061E00E944306C8010E9491
:100B80003A0789E061E00E944306C8010E943A07E3
:100B900088E061E00E944306C8010E943A0785E0B0
:100BA00061E00E944306C8010E943A0786E061E0C6
:100BB0000E944306C8010E943A0782E0612D0E940C
:100BC0004306C8010E943A0783E0612D0E94430654
:100BD000C8010E943A0784E0612D0E944306C801C3
:100BE0000E943A0787E0612D0E944306C8010E94D7
:100BF0003A078AE0612D0E944306C8010E943A0725
:100C000089E0612D0E944306C8010E943A0788E0EE
:100C1000612D0E944306C8010E943A0785E0612DBC
:100C20000E944306C8010E943A0786E0612D0E9497
:100C30004306C8010E943A0782E0612D0E944306E4
:100C400083E0612D0E94430684E0612D0E944306EB
:100C500085E0612D0E94430686E0612D0E944306D7
:100C600087E0612D0E94430688E0612D0E944306C3
:100C700089E0612D0E9443068AE0612D0E944306AF
:100C80001F910F910895883078F421E030E0A90198
:100C900002C0440F551F8A95E2F7CA019BB1662333
:100CA00031F1892B8BB908958E3088F48850990BD7
:100CB00021E030E0A90102C0440F551F8A95E2F7F8
:100CC000CA0195B16623D9F0892B85B9089585317C
:100CD000A8F48E50990B21E030E001C0220F8A95D4
:100CE000EAF788B1662339F0282B28B90895809552
:100CF00089238BB908952095282328B908958095D4
:100D0000892385B90895662369F0883078F59AB10A
:100D100021E030E001C0220F8A95EAF7892F822B6B
:100D20008AB90895883070F44AB121E030E0B90101
:100D300002C0660F771F8A95E2F7CB018095842366
:100D40008AB908958E30A0F1853178F447B18E507C
:100D5000990B21E030E0B90102C0660F771F8A9538
:100D6000E2F7CB018095842387B908958E3088F00F
:100D70008531D8F727B18E50990B41E050E0BA0188
:100D800002C0660F771F8A95E2F7CB01822B87B9E5
:100D9000089524B18850990B41E050E0BA0102C097
:100DA000660F771F8A95E2F7CB01822B84B90895ED
:100DB00044B18850990B21E030E0B90102C0660FC0
:100DC000771F8A95E2F7CB018095842384B9089533
:100DD0001F920F920FB60F9211242F933F934F93B0
:100DE0005F936F937F938F939F93AF93BF93EF9393
:100DF000FF93E0910401F0910501309709F0099506
:100E0000FF91EF91BF91AF919F918F917F916F91E2
:100E10005F914F913F912F910F900FBE0F901F90B8
:100E200018951F920F920FB60F9211242F933F9394
:100E30004F935F936F937F938F939F93AF93BF93E2
:100E4000EF93FF93E0910201F0910301309709F0D5
:100E50000995FF91EF91BF91AF919F918F917F91F4
:100E60006F915F914F913F912F910F900FBE0F9017
:100E70001F9018959C01892B61F090E080E0EFE9CC
:100E8000FFE03197F1F700C00000019628173907FD
:100E9000B1F708951F920F920FB60F9211242F935E
:100EA0003F934F935F936F937F938F939F93AF93F2
:100EB000BF93EF93FF938091100190911101892BC3
:100EC00021F58091120190911301A0911401B0912C
:100ED00015010196A11DB11D80931201909313017C
:100EE000A0931401B0931501FF91EF91BF91AF91C1
:100EF0009F918F917F916F915F914F913F912F9132
:100F00000F900FBE0F901F901895E0911001F09177
:100F10001101099580910F01882319F180910C012D
:100F20008823F9F080910C018093B30080910E0129
:100F30008823D1F290910D0183B7817F866083BFB2
:100F4000F89483B7816083BF992319F185B78066D0
:100F500085BF8F7D85BF7894889583B78E7F83BF4B
:100F6000C3CF109211011092100110920F01109234
:100F70000E0110920D0110920C011092B00084E04D
:100F80008093B100809170008160809370007894AC
:100F9000ABCF78948895E1CF1092B00084E0809335
:100FA000B100E0E7F0E0808181608083789408956B
:100FB0001F920F920FB60F9211242F933F934F93CE
:100FC0005F936F937F938F939F93AF93BF93EF93B1
:100FD000FF93E091AC01F091AD01309709F00995D4
:100FE000FF91EF91BF91AF919F918F917F916F9101
:100FF0005F914F913F912F910F900FBE0F901F90D7
:1010000018951F920F920FB60F9211242F933F93B2
:101010004F935F936F937F938F939F93AF93BF9300
:10102000EF93FF93E091AA01F091AB01309769F142
:10103000099580910001811117C01092AB011092A7
:10104000AA011092A9011092A80180916F008D7FD2
:1010500080936F008FEF86BB10928000109281000A
:101060001092850010928400FF91EF91BF91AF9193
:101070009F918F917F916F915F914F913F912F91B0
:101080000F900FBE0F901F9018958091A80190911E
:10109000A901892B49F35B9AE091A801F091A9017C
:1010A00009955B98E1CF1F920F920FB60F92112412
:1010B0002F933F934F935F936F937F938F939F9360
:1010C000AF93BF93EF93FF93E091A601F091A70137
:1010D000309789F009951092A7011092A6011092FD
:1010E0006F008FEF86BB10928000109281001092EB
:1010F000850010928400FF91EF91BF91AF919F9175
:101100008F917F916F915F914F913F912F910F90B0
:101110000FBE0F901F9018951F920F920FB60F924F
:1011200011242F933F934F935F936F937F938F93EC
:101130009F93AF93BF93EF93FF9380910A01909198
:101140000B01892B09F448C0E0910A01F0910B01D1
:10115000099580910901882341F180910601882336
:1011600021F180910601883008F047C0805CF89436
:10117000A89598E1909360008093600078948091A6
:101180000801882349F19091070183B7817F84602A
:1011900083BFF89483B7816083BF911131C0789485
:1011A000889583B78E7F83BF17C010920B01109272
:1011B0000A01109209011092080110920701109281
:1011C00006010FB6F894A89580916000886180931D
:1011D0006000109260000FBEFF91EF91BF91AF9140
:1011E0009F918F917F916F915F914F913F912F913F
:1011F0000F900FBE0F901F9018958770805AB7CF31
:1012000085B7806685BF8F7D85BF78948895C9CF67
:101210000F920FB60F921F9211242F938F939F93CB
:10122000EF93FF938091B801811122C08091C60095
:101230009091BE01E92F092E000CFF0BE054FE4FE8
:1012400080839F5F87E69802812D1124859597FD05
:101250008395282F220F220F820F981B892F90939E
:10126000BE0191E02091BF01281390E09093B80156
:10127000FF91EF919F918F912F911F900F900FBE33
:101280000F9018951F920F920FB60F9211242F9363
:101290003F934F935F936F937F938F939F93AF93FE
:1012A000BF93EF93FF93CF93DF930F92CDB7DEB74A
:1012B0008091B900887F8036F9F08091B900887FED
:1012C000883A09F459C08091BC00856C8093BC00B9
:1012D0000F90DF91CF91FF91EF91BF91AF919F91CF
:1012E0008F917F916F915F914F913F912F910F90CF
:1012F0000FBE0F901F9018958091BC019091BD0179
:10130000892BD9F28091BA019091BB01892BA9F266
:1013100070E060E024EC2093BC008091BC0087FF6B
:10132000FCCF9091BB008091B900887F803829F074
:101330008091B900887F883881F4E091BA01F091FA
:10134000BB01E60FF71F90836F5F7F4F8091BC0159
:101350009091BD0168177907F0F2E091B601F09124
:10136000B701309709F459C08091BA019091BB013F
:1013700009951092B901A7CFE091B401F091B501A0
:10138000309769F11982CE0101960995BC018981D6
:10139000882309F498CF20E0A4E834EC422F50E0F1
:1013A000FB01E40FF51F90819093BB008150990BD6
:1013B000481759078CF43093BC008091BC0087FF1C
:1013C000FCCF8091B900887F883B09F07CCF2F5FEC
:1013D0008981281718F377CFA093BC00EECFE09156
:1013E000B001F091B101309709F46DCF8091B9014E
:1013F000882309F468CF09958093BB0084E8809323
:10140000BC008091BC0087FFFCCF1092B901809195
:10141000BC00856C8093BC005BCFE091B201F09181
:10142000B301309771F0623071055CF0A091BA01A0
:10143000B091BB018C918093B90111966C91099583
:1014400042CF8091B0019091B101892B09F43BCF3B
:10145000672B09F438CFE091BA01F091BB0180818C
:101460008093B90130CF809101010895EE0FFF1FE5
:101470000590F491E02D09942F923F924F925F9244
:101480006F927F928F929F92AF92BF92CF92DF9294
:10149000EF92FF920F931F93CF93DF93CDB7DEB7F9
:1014A000CA1BDB0B0FB6F894DEBF0FBECDBF09948D
:1014B0002A88398848885F846E847D848C849B84E4
:1014C000AA84B984C884DF80EE80FD800C811B81F2
:1014D000AA81B981CE0FD11D0FB6F894DEBF0FBE21
:1014E000CDBFED010895283008F027E03327DA0159
:1014F000990F311D87FD916000966105710539F4E2
:1015000032602E5F3D9330E32A95E1F708959F3FC7
:1015100030F080387105610509F03C5F3C5F3D9318
:10152000913008F08068911DDF93CF931F930F9344
:10153000FF92EF92192F987F9695E92F96959695A1
:10154000E90FFF27E653FF4F99273327EE24FF24A7
:10155000A701E70105900894079428F4360FE71EC9
:10156000F81E491F511D660F771F881F991F06948B
:10157000A1F70590079428F4E70EF81E491F561F9F
:10158000C11D770F881F991F661F0694A1F705904C
:10159000079428F4F80E491F561FC71FD11D880F46
:1015A000991F661F771F0694A1F70590079420F4F2
:1015B000490F561FC71FD81F990F661F771F881F17
:1015C0000694A9F784911095177041F0D695C795A8
:1015D00057954795F794E7941A95C1F7E0E7F0E03F
:1015E00068941590159135916591959105907FE2DC
:1015F0007395E118F10A430B560BC90BD009C0F7DC
:10160000E10CF11E431F561FC91FD01D7EF470331D
:1016100011F48A95E6CFE894015030F0080F0AF4EF
:101620000027021708F4202F2395022F7A3328F081
:1016300079E37D932A95E9F710C07D932A9589F681
:10164000069497956795379517951794E118F10AC1
:10165000430B560BC90BD00998F023957E917395D7
:101660007A3308F070E37C932013B8F77E917061B1
:101670007D9330F0839571E37D9370E32A95E1F7D4
:101680001124EF90FF900F911F91CF91DF91992737
:1016900087FD90950895FC01059061507040011000
:1016A000D8F7809590958E0F9F1F0895FC0161508B
:1016B000704001900110D8F7809590958E0F9F1F74
:1016C00008950F931F93CF93DF93182F092FEB01EA
:1016D0008B8181FD09C01FEF0FEF812F902FDF91CC
:1016E000CF911F910F91089582FF14C02E813F81E9
:1016F0008C819D81281739073CF4E881F981CF015D
:1017000001969983888310838E819F8101969F83A0
:101710008E83E3CFE885F985812F0995892BA1F385
:10172000DACFFA01AA27283051F1203181F1E8946B
:101730006F936E7F6E5F7F4F8F4F9F4FAF4FB1E0C4
:101740003ED0B4E03CD0670F781F891F9A1FA11DBF
:10175000680F791F8A1F911DA11D6A0F711D811DC0
:10176000911DA11D20D009F468943F912AE0269F85
:1017700011243019305D3193DEF6CF010895462FE4
:101780004770405D4193B3E00FD0C9F7F6CF462FC5
:101790004F70405D4A3318F0495D31FD405241932E
:1017A00002D0A9F7EACFB4E0A695979587957795EB
:1017B0006795BA95C9F700976105710508959B0172
:1017C000AC010A2E06945795479537952795BA95FB
:1017D000C9F7620F731F841F951FA01D0895F89409
:0217E000FFCF39
:0217E200010103
:00000001FF
